{
  "contractName": "BestGameAuction",
  "abi": [
    {
      "inputs": [
        {
          "name": "numGames",
          "type": "uint8"
        }
      ],
      "payable": false,
      "stateMutability": "nonpayable",
      "type": "constructor"
    },
    {
      "constant": false,
      "inputs": [
        {
          "name": "_age",
          "type": "uint256"
        }
      ],
      "name": "setAge",
      "outputs": [],
      "payable": false,
      "stateMutability": "nonpayable",
      "type": "function"
    },
    {
      "constant": false,
      "inputs": [
        {
          "name": "_gender",
          "type": "uint256"
        }
      ],
      "name": "setGender",
      "outputs": [],
      "payable": false,
      "stateMutability": "nonpayable",
      "type": "function"
    },
    {
      "constant": false,
      "inputs": [
        {
          "name": "_yearsPlayed",
          "type": "uint256"
        }
      ],
      "name": "setYearCount",
      "outputs": [],
      "payable": false,
      "stateMutability": "nonpayable",
      "type": "function"
    },
    {
      "constant": false,
      "inputs": [
        {
          "name": "_gamesOwned",
          "type": "uint256"
        }
      ],
      "name": "setGameCount",
      "outputs": [],
      "payable": false,
      "stateMutability": "nonpayable",
      "type": "function"
    },
    {
      "constant": true,
      "inputs": [],
      "name": "getPointsB4Vote",
      "outputs": [
        {
          "name": "",
          "type": "uint256"
        }
      ],
      "payable": false,
      "stateMutability": "view",
      "type": "function"
    },
    {
      "constant": false,
      "inputs": [
        {
          "name": "_choice",
          "type": "uint8"
        }
      ],
      "name": "Vote",
      "outputs": [],
      "payable": false,
      "stateMutability": "nonpayable",
      "type": "function"
    },
    {
      "constant": true,
      "inputs": [],
      "name": "reqWinner",
      "outputs": [
        {
          "name": "winningProposal",
          "type": "uint8"
        }
      ],
      "payable": false,
      "stateMutability": "view",
      "type": "function"
    }
  ],
  "bytecode": "0x608060405234801561001057600080fd5b50604051602080610dcb8339810180604052602081101561003057600080fd5b810190808051906020019092919050505060018060003373ffffffffffffffffffffffffffffffffffffffff1673ffffffffffffffffffffffffffffffffffffffff16815260200190815260200160002060050160006101000a81548160ff021916908315150217905550336000806101000a81548173ffffffffffffffffffffffffffffffffffffffff021916908373ffffffffffffffffffffffffffffffffffffffff1602179055508060ff166002816100ec91906100f3565b5050610146565b81548183558181111561011a57818360005260206000209182019101610119919061011f565b5b505050565b61014391905b8082111561013f5760008082016000905550600101610125565b5090565b90565b610c76806101556000396000f3fe608060405234801561001057600080fd5b506004361061007d5760003560e01c8063508b30c91161005b578063508b30c9146100ff578063566694151461012357806394abaa2c14610151578063d5dcf1271461017f5761007d565b806312f4cbd9146100825780631f3760fe146100b357806346a4559b146100d1575b600080fd5b6100b16004803603602081101561009857600080fd5b81019080803560ff1690602001909291905050506101ad565b005b6100bb6103ce565b6040518082815260200191505060405180910390f35b6100fd600480360360208110156100e757600080fd5b8101908080359060200190929190505050610439565b005b610107610609565b604051808260ff1660ff16815260200191505060405180910390f35b61014f6004803603602081101561013957600080fd5b810190808035906020019092919050505061068c565b005b61017d6004803603602081101561016757600080fd5b810190808035906020019092919050505061085d565b005b6101ab6004803603602081101561019557600080fd5b8101908080359060200190929190505050610a2e565b005b6101b5610bfe565b600160003373ffffffffffffffffffffffffffffffffffffffff1673ffffffffffffffffffffffffffffffffffffffff1681526020019081526020016000206040518061010001604052908160008201548152602001600182015481526020016002820154815260200160038201548152602001600482015481526020016005820160009054906101000a900460ff161515151581526020016005820160019054906101000a900460ff161515151581526020016005820160029054906101000a900460ff1660ff1660ff16815250509050600015158160c0015115151461029c57600080fd5b6002805490508260ff16106102b057600080fd5b60018160c0019015159081151581525050818160e0019060ff16908160ff1681525050600160008060009054906101000a900473ffffffffffffffffffffffffffffffffffffffff1673ffffffffffffffffffffffffffffffffffffffff1673ffffffffffffffffffffffffffffffffffffffff1681526020019081526020016000206004015460028360ff168154811061034757fe5b90600052602060002001600001600082825401925050819055506000600160008060009054906101000a900473ffffffffffffffffffffffffffffffffffffffff1673ffffffffffffffffffffffffffffffffffffffff1673ffffffffffffffffffffffffffffffffffffffff168152602001908152602001600020600401819055505050565b6000600160008060009054906101000a900473ffffffffffffffffffffffffffffffffffffffff1673ffffffffffffffffffffffffffffffffffffffff1673ffffffffffffffffffffffffffffffffffffffff16815260200190815260200160002060040154905090565b806002811061044757600080fd5b81600160008060009054906101000a900473ffffffffffffffffffffffffffffffffffffffff1673ffffffffffffffffffffffffffffffffffffffff1673ffffffffffffffffffffffffffffffffffffffff168152602001908152602001600020600001819055506000600160008060009054906101000a900473ffffffffffffffffffffffffffffffffffffffff1673ffffffffffffffffffffffffffffffffffffffff1673ffffffffffffffffffffffffffffffffffffffff168152602001908152602001600020600001541415610592576004600160008060009054906101000a900473ffffffffffffffffffffffffffffffffffffffff1673ffffffffffffffffffffffffffffffffffffffff1673ffffffffffffffffffffffffffffffffffffffff16815260200190815260200160002060040160008282540192505081905550610605565b6002600160008060009054906101000a900473ffffffffffffffffffffffffffffffffffffffff1673ffffffffffffffffffffffffffffffffffffffff1673ffffffffffffffffffffffffffffffffffffffff168152602001908152602001600020600401600082825401925050819055505b5050565b6000806000905060008090505b6002805490508160ff16101561067c578160028260ff168154811061063757fe5b9060005260206000200160000154111561066f5760028160ff168154811061065b57fe5b906000526020600020016000015491508092505b8080600101915050610616565b50600481101561068857fe5b5090565b80600281101561069b57600080fd5b81600160008060009054906101000a900473ffffffffffffffffffffffffffffffffffffffff1673ffffffffffffffffffffffffffffffffffffffff1673ffffffffffffffffffffffffffffffffffffffff168152602001908152602001600020600201819055506003600160008060009054906101000a900473ffffffffffffffffffffffffffffffffffffffff1673ffffffffffffffffffffffffffffffffffffffff1673ffffffffffffffffffffffffffffffffffffffff1681526020019081526020016000206002015411156107e6576004600160008060009054906101000a900473ffffffffffffffffffffffffffffffffffffffff1673ffffffffffffffffffffffffffffffffffffffff1673ffffffffffffffffffffffffffffffffffffffff16815260200190815260200160002060040160008282540192505081905550610859565b6002600160008060009054906101000a900473ffffffffffffffffffffffffffffffffffffffff1673ffffffffffffffffffffffffffffffffffffffff1673ffffffffffffffffffffffffffffffffffffffff168152602001908152602001600020600401600082825401925050819055505b5050565b80600181101561086c57600080fd5b81600160008060009054906101000a900473ffffffffffffffffffffffffffffffffffffffff1673ffffffffffffffffffffffffffffffffffffffff1673ffffffffffffffffffffffffffffffffffffffff168152602001908152602001600020600301819055506003600160008060009054906101000a900473ffffffffffffffffffffffffffffffffffffffff1673ffffffffffffffffffffffffffffffffffffffff1673ffffffffffffffffffffffffffffffffffffffff1681526020019081526020016000206003015411156109b7576004600160008060009054906101000a900473ffffffffffffffffffffffffffffffffffffffff1673ffffffffffffffffffffffffffffffffffffffff1673ffffffffffffffffffffffffffffffffffffffff16815260200190815260200160002060040160008282540192505081905550610a2a565b6002600160008060009054906101000a900473ffffffffffffffffffffffffffffffffffffffff1673ffffffffffffffffffffffffffffffffffffffff1673ffffffffffffffffffffffffffffffffffffffff168152602001908152602001600020600401600082825401925050819055505b5050565b806010811015610a3d57600080fd5b81600160008060009054906101000a900473ffffffffffffffffffffffffffffffffffffffff1673ffffffffffffffffffffffffffffffffffffffff1673ffffffffffffffffffffffffffffffffffffffff168152602001908152602001600020600101819055506015600160008060009054906101000a900473ffffffffffffffffffffffffffffffffffffffff1673ffffffffffffffffffffffffffffffffffffffff1673ffffffffffffffffffffffffffffffffffffffff1681526020019081526020016000206001015410610b87576004600160008060009054906101000a900473ffffffffffffffffffffffffffffffffffffffff1673ffffffffffffffffffffffffffffffffffffffff1673ffffffffffffffffffffffffffffffffffffffff16815260200190815260200160002060040160008282540192505081905550610bfa565b6002600160008060009054906101000a900473ffffffffffffffffffffffffffffffffffffffff1673ffffffffffffffffffffffffffffffffffffffff1673ffffffffffffffffffffffffffffffffffffffff168152602001908152602001600020600401600082825401925050819055505b5050565b6040518061010001604052806000815260200160008152602001600081526020016000815260200160008152602001600015158152602001600015158152602001600060ff168152509056fea165627a7a723058201c3d51b037196a56194dc671f486a482e5e8acb60c48b24db815e8a88727c5a10029",
  "source": "pragma solidity >=0.4.22 <0.6.0;\ncontract BestGameAuction {\n\n    struct Voter{\n\n        uint gender;\n        uint age;\n        uint years_played;\n        uint games_owned;\n\n        uint points; ///The amount of points the voter's vote is\n\n        bool accepted;\n        bool pastVoter;\n        uint8 voteChoice;\n\n    }\n\n    struct Proposal {\n        uint voteCount;\n    }\n\n    address user;\n    mapping(address => Voter) voters;\n    Proposal[] games;\n\n    constructor(uint8 numGames) public {\n        voters[msg.sender].accepted = true;\n        user = msg.sender;\n        games.length = numGames;\n    }\n\n    ///---- Modifier functions ----\n    ///Requires the user to be atleast the age of 16\n    modifier checkAgeReq(uint n){\n        require(n >= 16);\n        _;\n    }\n    ///Requires user to only input 0 or 1 for gender (Female = 0, Male = 1)\n    modifier checkGenderReq(uint n){\n        require(n < 2);\n        _;\n    }\n    ///Requires the user to have played games for atleast 2 years\n    modifier checkYearCount(uint n){\n        require(n >= 2);\n        _;\n    }\n    ///Requires the user to own atleast 1 games\n    modifier checkGameCount(uint n){\n        require(n >= 1 );\n        _;\n    }\n\n    ///---- Functionality ----\n\n    /// Adding points according to specific user information\n    /// If user is atleast 21, their vote is weighted more\n\n    function setAge(uint _age) checkAgeReq(_age) public{\n        voters[user].age = _age;\n\n        if(voters[user].age >= 21) voters[user].points += 4;\n            else{voters[user].points += 2;}\n\n    }\n\n    /// If user is a female, their vote is weighted more\n    /// Guide: Female = 0, Male = 1\n    function setGender(uint _gender) checkGenderReq(_gender) public{\n        voters[user].gender = _gender;\n\n        if(voters[user].gender == 0) voters[user].points += 4;\n        else{ voters[user].points += 2;}\n        return;\n    }\n\n    /// If user has played games for 3 or more years, their vote is weighted more\n    function setYearCount(uint _yearsPlayed) checkYearCount(_yearsPlayed) public{\n        voters[user].years_played= _yearsPlayed;\n\n        if(voters[user].years_played > 3) voters[user].points += 4;\n        else{ voters[user].points += 2;}\n        return;\n    }\n\n    /// If user has owned more than 2 games, their vote is weighted more\n    function setGameCount(uint _gamesOwned) checkGameCount(_gamesOwned) public{\n        voters[user].games_owned = _gamesOwned;\n\n        if(voters[user].games_owned > 3) voters[user].points += 4;\n        else{ voters[user].points += 2;}\n        return;\n    }\n\n    function getPointsB4Vote() view public returns (uint){\n        return(voters[user].points);\n    }\n\n    ///User will cast their vote according to the options that will be shown in the Dapp\n    ///Options will be acceptable as 0 - 9 (10 options)\n    function Vote(uint8 _choice) public{\n        Voter memory sender = voters[msg.sender];\n\n        require (sender.pastVoter == false);\n        require (_choice < games.length);\n\n        sender.pastVoter = true;\n        //voters[user].pastVoter = true;\n        sender.voteChoice = _choice;\n        games[_choice].voteCount += voters[user].points; // sender.weight; // change 2\n        voters[user].points = 0;\n\n    }\n\n    function reqWinner() public view returns (uint8 winningProposal) {\n\n        uint256 winningVoteCount = 0;\n        for (uint8 prop = 0; prop < games.length; prop++)\n            if (games[prop].voteCount > winningVoteCount) {\n                winningVoteCount = games[prop].voteCount;\n                winningProposal = prop;\n            }\n       assert(winningVoteCount>=4);\n    }\n\n}\n",
  "sourcePath": "C:/Users/Bubbl/CSE426/BestGameAuction/BestGameAuction-contract/contracts/BestGameAuction.sol",
  "compiler": {
    "name": "solc",
    "version": "0.5.8+commit.23d335f2.Emscripten.clang"
  },
  "schemaVersion": "3.0.16",
  "updatedAt": "2019-11-15T04:24:28.634Z",
  "devdoc": {
    "methods": {}
  },
  "userdoc": {
    "methods": {
      "Vote(uint8)": {
        "notice": "User will cast their vote according to the options that will be shown in the Dapp Options will be acceptable as 0 - 9 (10 options)"
      },
      "setAge(uint256)": {
        "notice": "---- Functionality ---- Adding points according to specific user information If user is atleast 21, their vote is weighted more"
      },
      "setGameCount(uint256)": {
        "notice": "If user has owned more than 2 games, their vote is weighted more"
      },
      "setGender(uint256)": {
        "notice": "If user is a female, their vote is weighted more Guide: Female = 0, Male = 1"
      },
      "setYearCount(uint256)": {
        "notice": "If user has played games for 3 or more years, their vote is weighted more"
      }
    }
  }
}